{
  "contractName": "LiquidityMigrator",
  "abi": [
    {
      "inputs": [
        {
          "internalType": "address",
          "name": "_router",
          "type": "address"
        },
        {
          "internalType": "address",
          "name": "_pair",
          "type": "address"
        },
        {
          "internalType": "address",
          "name": "_routerFork",
          "type": "address"
        },
        {
          "internalType": "address",
          "name": "_pairFork",
          "type": "address"
        },
        {
          "internalType": "address",
          "name": "_bonusToken",
          "type": "address"
        }
      ],
      "stateMutability": "nonpayable",
      "type": "constructor"
    },
    {
      "inputs": [],
      "name": "admin",
      "outputs": [
        {
          "internalType": "address",
          "name": "",
          "type": "address"
        }
      ],
      "stateMutability": "view",
      "type": "function"
    },
    {
      "inputs": [],
      "name": "bonusToken",
      "outputs": [
        {
          "internalType": "contract BonusToken",
          "name": "",
          "type": "address"
        }
      ],
      "stateMutability": "view",
      "type": "function"
    },
    {
      "inputs": [],
      "name": "migrationDone",
      "outputs": [
        {
          "internalType": "bool",
          "name": "",
          "type": "bool"
        }
      ],
      "stateMutability": "view",
      "type": "function"
    },
    {
      "inputs": [],
      "name": "pair",
      "outputs": [
        {
          "internalType": "contract IUniswapV2Pair",
          "name": "",
          "type": "address"
        }
      ],
      "stateMutability": "view",
      "type": "function"
    },
    {
      "inputs": [],
      "name": "pairFork",
      "outputs": [
        {
          "internalType": "contract IUniswapV2Pair",
          "name": "",
          "type": "address"
        }
      ],
      "stateMutability": "view",
      "type": "function"
    },
    {
      "inputs": [],
      "name": "router",
      "outputs": [
        {
          "internalType": "contract IUniswapV2Router02",
          "name": "",
          "type": "address"
        }
      ],
      "stateMutability": "view",
      "type": "function"
    },
    {
      "inputs": [],
      "name": "routerFork",
      "outputs": [
        {
          "internalType": "contract IUniswapV2Router02",
          "name": "",
          "type": "address"
        }
      ],
      "stateMutability": "view",
      "type": "function"
    },
    {
      "inputs": [
        {
          "internalType": "address",
          "name": "",
          "type": "address"
        }
      ],
      "name": "unclaimedBalances",
      "outputs": [
        {
          "internalType": "uint256",
          "name": "",
          "type": "uint256"
        }
      ],
      "stateMutability": "view",
      "type": "function"
    },
    {
      "inputs": [
        {
          "internalType": "uint256",
          "name": "amount",
          "type": "uint256"
        }
      ],
      "name": "deposit",
      "outputs": [],
      "stateMutability": "nonpayable",
      "type": "function"
    },
    {
      "inputs": [],
      "name": "migrate",
      "outputs": [],
      "stateMutability": "nonpayable",
      "type": "function"
    },
    {
      "inputs": [],
      "name": "claimLptokens",
      "outputs": [],
      "stateMutability": "nonpayable",
      "type": "function"
    }
  ],
  "bytecode": "0x60806040523480156200001157600080fd5b506040516200188e3803806200188e833981810160405281019062000037919062000231565b846000806101000a81548173ffffffffffffffffffffffffffffffffffffffff021916908373ffffffffffffffffffffffffffffffffffffffff16021790555083600160006101000a81548173ffffffffffffffffffffffffffffffffffffffff021916908373ffffffffffffffffffffffffffffffffffffffff16021790555082600260006101000a81548173ffffffffffffffffffffffffffffffffffffffff021916908373ffffffffffffffffffffffffffffffffffffffff16021790555081600360006101000a81548173ffffffffffffffffffffffffffffffffffffffff021916908373ffffffffffffffffffffffffffffffffffffffff16021790555080600460006101000a81548173ffffffffffffffffffffffffffffffffffffffff021916908373ffffffffffffffffffffffffffffffffffffffff16021790555033600560006101000a81548173ffffffffffffffffffffffffffffffffffffffff021916908373ffffffffffffffffffffffffffffffffffffffff1602179055505050505050620002b9565b600080fd5b600073ffffffffffffffffffffffffffffffffffffffff82169050919050565b6000620001f982620001cc565b9050919050565b6200020b81620001ec565b81146200021757600080fd5b50565b6000815190506200022b8162000200565b92915050565b600080600080600060a0868803121562000250576200024f620001c7565b5b600062000260888289016200021a565b955050602062000273888289016200021a565b945050604062000286888289016200021a565b935050606062000299888289016200021a565b9250506080620002ac888289016200021a565b9150509295509295909350565b6115c580620002c96000396000f3fe608060405234801561001057600080fd5b50600436106100a95760003560e01c80638bf6afaf116100715780638bf6afaf146101305780638fd3ab8014610160578063a8aa1b311461016a578063b6b55f2514610188578063f851a440146101a4578063f887ea40146101c2576100a9565b80630d81a570146100ae57806341d4a1ab146100cc57806352c7262e146100ea57806359201402146100f4578063766faf3614610112575b600080fd5b6100b66101e0565b6040516100c39190610dfd565b60405180910390f35b6100d46101f3565b6040516100e19190610e97565b60405180910390f35b6100f2610219565b005b6100fc61042e565b6040516101099190610ed3565b60405180910390f35b61011a610454565b6040516101279190610f0f565b60405180910390f35b61014a60048036038101906101459190610f6d565b61047a565b6040516101579190610fb3565b60405180910390f35b610168610492565b005b610172610b82565b60405161017f9190610ed3565b60405180910390f35b6101a2600480360381019061019d9190610ffa565b610ba8565b005b6101ac610d98565b6040516101b99190611036565b60405180910390f35b6101ca610dbe565b6040516101d79190610f0f565b60405180910390f35b600760009054906101000a900460ff1681565b600460009054906101000a900473ffffffffffffffffffffffffffffffffffffffff1681565b6000600660003373ffffffffffffffffffffffffffffffffffffffff1673ffffffffffffffffffffffffffffffffffffffff16815260200190815260200160002054101561029c576040517f08c379a0000000000000000000000000000000000000000000000000000000008152600401610293906110ae565b60405180910390fd5b60011515600760009054906101000a900460ff161515146102f2576040517f08c379a00000000000000000000000000000000000000000000000000000000081526004016102e99061111a565b60405180910390fd5b6000600660003373ffffffffffffffffffffffffffffffffffffffff1673ffffffffffffffffffffffffffffffffffffffff1681526020019081526020016000205490506000600660003373ffffffffffffffffffffffffffffffffffffffff1673ffffffffffffffffffffffffffffffffffffffff16815260200190815260200160002081905550600360009054906101000a900473ffffffffffffffffffffffffffffffffffffffff1673ffffffffffffffffffffffffffffffffffffffff1663a9059cbb30836040518363ffffffff1660e01b81526004016103d892919061113a565b602060405180830381600087803b1580156103f257600080fd5b505af1158015610406573d6000803e3d6000fd5b505050506040513d601f19601f8201168201806040525081019061042a919061118f565b5050565b600360009054906101000a900473ffffffffffffffffffffffffffffffffffffffff1681565b600260009054906101000a900473ffffffffffffffffffffffffffffffffffffffff1681565b60066020528060005260406000206000915090505481565b600560009054906101000a900473ffffffffffffffffffffffffffffffffffffffff1673ffffffffffffffffffffffffffffffffffffffff163373ffffffffffffffffffffffffffffffffffffffff1614610522576040517f08c379a000000000000000000000000000000000000000000000000000000000815260040161051990611208565b60405180910390fd5b60001515600760009054906101000a900460ff16151514610578576040517f08c379a000000000000000000000000000000000000000000000000000000000815260040161056f90611274565b60405180910390fd5b6000600160009054906101000a900473ffffffffffffffffffffffffffffffffffffffff1673ffffffffffffffffffffffffffffffffffffffff16630dfe16816040518163ffffffff1660e01b815260040160206040518083038186803b1580156105e257600080fd5b505afa1580156105f6573d6000803e3d6000fd5b505050506040513d601f19601f8201168201806040525081019061061a91906112a9565b90506000600160009054906101000a900473ffffffffffffffffffffffffffffffffffffffff1673ffffffffffffffffffffffffffffffffffffffff1663d21220a76040518163ffffffff1660e01b815260040160206040518083038186803b15801561068657600080fd5b505afa15801561069a573d6000803e3d6000fd5b505050506040513d601f19601f820116820180604052508101906106be91906112a9565b90506000600160009054906101000a900473ffffffffffffffffffffffffffffffffffffffff1673ffffffffffffffffffffffffffffffffffffffff166370a08231306040518263ffffffff1660e01b815260040161071d9190611036565b60206040518083038186803b15801561073557600080fd5b505afa158015610749573d6000803e3d6000fd5b505050506040513d601f19601f8201168201806040525081019061076d91906112eb565b905060008054906101000a900473ffffffffffffffffffffffffffffffffffffffff1673ffffffffffffffffffffffffffffffffffffffff1663baa2abde84848460008030426040518863ffffffff1660e01b81526004016107d59796959493929190611353565b6040805180830381600087803b1580156107ee57600080fd5b505af1158015610802573d6000803e3d6000fd5b505050506040513d601f19601f8201168201806040525081019061082691906113c2565b505060008373ffffffffffffffffffffffffffffffffffffffff166370a08231306040518263ffffffff1660e01b81526004016108639190611036565b60206040518083038186803b15801561087b57600080fd5b505afa15801561088f573d6000803e3d6000fd5b505050506040513d601f19601f820116820180604052508101906108b391906112eb565b905060008373ffffffffffffffffffffffffffffffffffffffff166370a08231306040518263ffffffff1660e01b81526004016108f09190611036565b60206040518083038186803b15801561090857600080fd5b505afa15801561091c573d6000803e3d6000fd5b505050506040513d601f19601f8201168201806040525081019061094091906112eb565b90508473ffffffffffffffffffffffffffffffffffffffff1663095ea7b3600260009054906101000a900473ffffffffffffffffffffffffffffffffffffffff16846040518363ffffffff1660e01b815260040161099f92919061113a565b602060405180830381600087803b1580156109b957600080fd5b505af11580156109cd573d6000803e3d6000fd5b505050506040513d601f19601f820116820180604052508101906109f1919061118f565b508373ffffffffffffffffffffffffffffffffffffffff1663095ea7b3600260009054906101000a900473ffffffffffffffffffffffffffffffffffffffff16836040518363ffffffff1660e01b8152600401610a4f92919061113a565b602060405180830381600087803b158015610a6957600080fd5b505af1158015610a7d573d6000803e3d6000fd5b505050506040513d601f19601f82011682018060405250810190610aa1919061118f565b50600260009054906101000a900473ffffffffffffffffffffffffffffffffffffffff1673ffffffffffffffffffffffffffffffffffffffff1663e8e3370086868585878730426040518963ffffffff1660e01b8152600401610b0b989796959493929190611402565b606060405180830381600087803b158015610b2557600080fd5b505af1158015610b39573d6000803e3d6000fd5b505050506040513d601f19601f82011682018060405250810190610b5d9190611480565b5050506001600760006101000a81548160ff0219169083151502179055505050505050565b600160009054906101000a900473ffffffffffffffffffffffffffffffffffffffff1681565b60001515600760009054906101000a900460ff16151514610bfe576040517f08c379a0000000000000000000000000000000000000000000000000000000008152600401610bf590611274565b60405180910390fd5b600160009054906101000a900473ffffffffffffffffffffffffffffffffffffffff1673ffffffffffffffffffffffffffffffffffffffff166323b872dd3330846040518463ffffffff1660e01b8152600401610c5d939291906114d3565b602060405180830381600087803b158015610c7757600080fd5b505af1158015610c8b573d6000803e3d6000fd5b505050506040513d601f19601f82011682018060405250810190610caf919061118f565b50600460009054906101000a900473ffffffffffffffffffffffffffffffffffffffff1673ffffffffffffffffffffffffffffffffffffffff166340c10f1933836040518363ffffffff1660e01b8152600401610d0d92919061113a565b600060405180830381600087803b158015610d2757600080fd5b505af1158015610d3b573d6000803e3d6000fd5b5050505080600660003373ffffffffffffffffffffffffffffffffffffffff1673ffffffffffffffffffffffffffffffffffffffff1681526020019081526020016000206000828254610d8e9190611539565b9250508190555050565b600560009054906101000a900473ffffffffffffffffffffffffffffffffffffffff1681565b60008054906101000a900473ffffffffffffffffffffffffffffffffffffffff1681565b60008115159050919050565b610df781610de2565b82525050565b6000602082019050610e126000830184610dee565b92915050565b600073ffffffffffffffffffffffffffffffffffffffff82169050919050565b6000819050919050565b6000610e5d610e58610e5384610e18565b610e38565b610e18565b9050919050565b6000610e6f82610e42565b9050919050565b6000610e8182610e64565b9050919050565b610e9181610e76565b82525050565b6000602082019050610eac6000830184610e88565b92915050565b6000610ebd82610e64565b9050919050565b610ecd81610eb2565b82525050565b6000602082019050610ee86000830184610ec4565b92915050565b6000610ef982610e64565b9050919050565b610f0981610eee565b82525050565b6000602082019050610f246000830184610f00565b92915050565b600080fd5b6000610f3a82610e18565b9050919050565b610f4a81610f2f565b8114610f5557600080fd5b50565b600081359050610f6781610f41565b92915050565b600060208284031215610f8357610f82610f2a565b5b6000610f9184828501610f58565b91505092915050565b6000819050919050565b610fad81610f9a565b82525050565b6000602082019050610fc86000830184610fa4565b92915050565b610fd781610f9a565b8114610fe257600080fd5b50565b600081359050610ff481610fce565b92915050565b6000602082840312156110105761100f610f2a565b5b600061101e84828501610fe5565b91505092915050565b61103081610f2f565b82525050565b600060208201905061104b6000830184611027565b92915050565b600082825260208201905092915050565b7f6e6f20756e636c61696d65642062616c616e6365000000000000000000000000600082015250565b6000611098601483611051565b91506110a382611062565b602082019050919050565b600060208201905081810360008301526110c78161108b565b9050919050565b7f6d6967726174696f6e206e6f7420646f6e652079657400000000000000000000600082015250565b6000611104601683611051565b915061110f826110ce565b602082019050919050565b60006020820190508181036000830152611133816110f7565b9050919050565b600060408201905061114f6000830185611027565b61115c6020830184610fa4565b9392505050565b61116c81610de2565b811461117757600080fd5b50565b60008151905061118981611163565b92915050565b6000602082840312156111a5576111a4610f2a565b5b60006111b38482850161117a565b91505092915050565b7f6f6e6c792061646d696e2063616e206d69677261746500000000000000000000600082015250565b60006111f2601683611051565b91506111fd826111bc565b602082019050919050565b60006020820190508181036000830152611221816111e5565b9050919050565b7f6d6967726174696f6e20616c726561647920646f6e6500000000000000000000600082015250565b600061125e601683611051565b915061126982611228565b602082019050919050565b6000602082019050818103600083015261128d81611251565b9050919050565b6000815190506112a381610f41565b92915050565b6000602082840312156112bf576112be610f2a565b5b60006112cd84828501611294565b91505092915050565b6000815190506112e581610fce565b92915050565b60006020828403121561130157611300610f2a565b5b600061130f848285016112d6565b91505092915050565b6000819050919050565b600061133d61133861133384611318565b610e38565b610f9a565b9050919050565b61134d81611322565b82525050565b600060e082019050611368600083018a611027565b6113756020830189611027565b6113826040830188610fa4565b61138f6060830187611344565b61139c6080830186611344565b6113a960a0830185611027565b6113b660c0830184610fa4565b98975050505050505050565b600080604083850312156113d9576113d8610f2a565b5b60006113e7858286016112d6565b92505060206113f8858286016112d6565b9150509250929050565b600061010082019050611418600083018b611027565b611425602083018a611027565b6114326040830189610fa4565b61143f6060830188610fa4565b61144c6080830187610fa4565b61145960a0830186610fa4565b61146660c0830185611027565b61147360e0830184610fa4565b9998505050505050505050565b60008060006060848603121561149957611498610f2a565b5b60006114a7868287016112d6565b93505060206114b8868287016112d6565b92505060406114c9868287016112d6565b9150509250925092565b60006060820190506114e86000830186611027565b6114f56020830185611027565b6115026040830184610fa4565b949350505050565b7f4e487b7100000000000000000000000000000000000000000000000000000000600052601160045260246000fd5b600061154482610f9a565b915061154f83610f9a565b9250827fffffffffffffffffffffffffffffffffffffffffffffffffffffffffffffffff038211156115845761158361150a565b5b82820190509291505056fea26469706673582212209a7eef89a5b267087938058d814765b049e0c036ccbce26a8188b592d450982664736f6c63430008090033",
  "immutableReferences": {},
  "source": "pragma solidity >=0.6.6;\r\n\r\nimport \"@openzeppelin/contracts/token/ERC20/IERC20.sol\";\r\nimport \"@uniswap/v2-periphery/contracts/interfaces/IUniswapV2Router02.sol\";\r\nimport \"./IUniswapV2Pair.sol\";\r\nimport \"./BonusToken.sol\";\r\n\r\ncontract LiquidityMigrator {\r\n    IUniswapV2Router02 public router;\r\n    IUniswapV2Pair public pair;\r\n    IUniswapV2Router02 public routerFork;\r\n    IUniswapV2Pair public pairFork;\r\n    BonusToken public bonusToken;\r\n    address public admin;\r\n    mapping(address => uint) public unclaimedBalances;\r\n    bool public migrationDone;\r\n\r\n    constructor(\r\n        address _router,\r\n        address _pair,\r\n        address _routerFork,\r\n        address _pairFork,\r\n        address _bonusToken\r\n    )  {\r\n        router = IUniswapV2Router02(_router);\r\n        pair = IUniswapV2Pair(_pair);\r\n        routerFork = IUniswapV2Router02(_routerFork);\r\n        pairFork = IUniswapV2Pair(_pairFork);\r\n        bonusToken = BonusToken(_bonusToken);\r\n        admin = msg.sender;\r\n    }\r\n\r\n    function deposit(uint amount) external {\r\n        require(migrationDone == false, \"migration already done\");\r\n        pair.transferFrom(msg.sender, address(this), amount);\r\n        bonusToken.mint(msg.sender, amount);\r\n        unclaimedBalances[msg.sender] += amount;\r\n    }\r\n\r\n    function migrate() external {\r\n        require(msg.sender == admin, \"only admin can migrate\");\r\n        require(migrationDone == false, \"migration already done\");\r\n        IERC20 token0 = IERC20(pair.token0());\r\n        IERC20 token1 = IERC20(pair.token1());\r\n        uint totalBalance = pair.balanceOf(address(this));\r\n        router.removeLiquidity(\r\n            address(token0),\r\n            address(token1),\r\n            totalBalance,\r\n            0,\r\n            0,\r\n            address(this),\r\n            block.timestamp\r\n        );\r\n\r\n        uint token0Balance = token0.balanceOf(address(this));\r\n        uint token1Balance = token1.balanceOf(address(this));\r\n        token0.approve(address(routerFork), token0Balance);\r\n        token1.approve(address(routerFork), token1Balance);\r\n        routerFork.addLiquidity(\r\n            address(token0),\r\n            address(token1),\r\n            token0Balance,\r\n            token1Balance,\r\n            token0Balance,\r\n            token1Balance,\r\n            address(this),\r\n            block.timestamp\r\n        );\r\n        \r\n        migrationDone = true;\r\n    }\r\n\r\n    function claimLptokens() external {\r\n        require(unclaimedBalances[msg.sender] >= 0, \"no unclaimed balance\");\r\n        require(migrationDone == true, \"migration not done yet\");\r\n        uint amountToSend = unclaimedBalances[msg.sender];\r\n        unclaimedBalances[msg.sender] = 0;\r\n        pairFork.transfer(address(this), amountToSend);\r\n    }\r\n}\r\n",
  "sourcePath": "C:\\Users\\facun\\Documents\\Coderhouse\\Solidity\\UniswapFork\\migrator\\contracts\\LiquidityMigrator.sol",
  "compiler": {
    "name": "solc",
    "version": "0.8.9+commit.e5eed63a.Emscripten.clang"
  },
  "schemaVersion": "3.4.3",
  "updatedAt": "2021-11-04T04:38:25.715Z",
  "devdoc": {
    "kind": "dev",
    "methods": {},
    "version": 1
  },
  "userdoc": {
    "kind": "user",
    "methods": {},
    "version": 1
  }
}